:100000000C945C000C946E000C946E000C946E00CA
:100010000C946E000C946E000C946E000C946E00A8
:100020000C946E000C946E000C946E000C946E0098
:100030000C946E000C946E000C946E000C946E0088
:100040000C9409010C946E000C946E000C946E00DC
:100050000C946E000C946E000C946E000C946E0068
:100060000C946E000C946E00000000080002010069
:100070000003040700000000000000000000000072
:10008000250028002B0000000000240027002A0083
:10009000040404040404040402020202020203032E
:1000A0000303030301020408102040800102040836
:1000B000102001020408102011241FBECFEFD8E049
:1000C000DEBFCDBF21E0A0E0B1E001C01D92A930AC
:1000D000B207E1F70E9453010C94D1040C94000084
:1000E00090E0FC01EC55FF4F249180579F4FFC019D
:1000F0008491882399F090E0880F991FFC01EA57BA
:10010000FF4FA591B491FC01E458FF4F8591949164
:100110008FB7F894EC91E22BEC938FBF089590E0A9
:10012000FC01E859FF4F2491FC01EC55FF4F34913D
:10013000FC01E057FF4FE491EE23C9F0222339F090
:10014000233001F1A8F4213019F1223029F1F0E037
:10015000EE0FFF1FE458FF4FA591B4918FB7F894AD
:10016000EC91611126C030953E233C938FBF0895DA
:100170002730A9F02830C9F0243049F78091800059
:100180008F7D03C0809180008F7780938000DFCFC8
:1001900084B58F7784BDDBCF84B58F7DFBCF809115
:1001A000B0008F778093B000D2CF8091B0008F7D68
:1001B000F9CF3E2BDACF8E3008F08E5087708064F6
:1001C00080937C0080917A00806480937A00809193
:1001D0007A0086FDFCCF8091780090917900089597
:1001E0000E94DB00BC01990F880B990B0E94AF03A2
:1001F00028E431EE42EA50E40E9464049B01AC0121
:100200000E94060320E030E040E85AE30E946404C4
:1002100008951F920F920FB60F9211242F933F93C0
:100220008F939F93AF93BF938091050190910601A7
:10023000A0910701B09108013091040123E0230F40
:100240002D3758F50196A11DB11D2093040180930F
:10025000050190930601A0930701B09308018091D6
:10026000000190910101A0910201B091030101965A
:10027000A11DB11D8093000190930101A093020183
:10028000B0930301BF91AF919F918F913F912F91B7
:100290000F900FBE0F901F90189526E8230F02961F
:1002A000A11DB11DD2CFCF93DF9300D000D01F92FC
:1002B000CDB7DEB7789484B5826084BD84B58160A3
:1002C00084BD85B5826085BD85B5816085BD809121
:1002D0006E00816080936E00109281008091810099
:1002E0008260809381008091810081608093810091
:1002F000809180008160809380008091B100846053
:100300008093B1008091B00081608093B0008091B3
:100310007A00846080937A0080917A008260809372
:100320007A0080917A00816080937A0080917A00CF
:10033000806880937A001092C10087E00E9470006C
:1003400088E00E94700080E00E94700081E00E94BE
:10035000700081E190E00E94F0002B013C0180E1FF
:1003600090E00E94F0004B015C018FE090E00E9461
:10037000F0006B017C0182E10E94DB00BC01990F5F
:10038000880B990B0E94AF0320E030E040EA50E474
:100390000E94640420E030E040E85AE30E946404D4
:1003A0008B018D839B8383E10E94DB00BC01990F4D
:1003B000880B990B0E94AF0320E030E040EA50E444
:1003C0000E94640420E030E040E85AE30E946404A4
:1003D0001B0189839A8326E636E646E850E4C3018A
:1003E000B2010E945F0487FF14C026E636E646E8A5
:1003F00050E4C501B4010E945F0487FF0AC026E6ED
:1004000036E646E850E4C701B6010E945F0487FD66
:100410005BC061E087E00E948F0061E080E00E94A5
:100420008F0020E030E040E050E4B8018D819B81F6
:100430000E945F0487FF0BC020E030E040E050E402
:10044000B10189819A810E945F0487FD61C061E0EA
:1004500088E00E948F0061E081E00E948F00980197
:100460004D815B81B10189819A810E94720387FD70
:1004700005C0810189818D839A819B8320E030E0D2
:1004800040E050E4B8018D819B810E94720387FF98
:10049000ADC020E030E04AEF52E4B8018D819B818D
:1004A0000E9464040E9477036B017C836B8385E068
:1004B0000E947000EB81FC81EF2B09F045C060E0E9
:1004C00085E00E948F006BC026E636E646E850E4E1
:1004D000C301B2010E94720387FFA3CF26E636E66E
:1004E00046E850E4C501B4010E94720387FF99CF2A
:1004F00026E636E646E850E4C701B6010E947203DC
:1005000087FF8FCF60E087E00E948F0060E086CF9A
:1005100020E030E040E050E4B8018D819B810E94F2
:10052000720387FD0BC020E030E040E050E4B101F1
:1005300089819A810E94720387FF91CF60E088E0F1
:100540000E948F0060E088CF8B819C818F3F910556
:1005500011F461E0B5CFEDE6F0E08491833061F114
:1005600050F48130C1F0823011F18B819C81803850
:1005700091057CF7A4CF873049F1883079F1843038
:10058000A1F780918000806280938000D0928B00E0
:10059000C0928A0004C084B5806884BDC7BCE0E016
:1005A000F0E0EF2B09F4D5CE0E940000D2CE84B546
:1005B000806284BDC8BCF3CF809180008068809346
:1005C0008000D0928900C0928800E9CF8091B0006D
:1005D00080688093B000C092B300E1CF8091B000FA
:1005E00080628093B000C092B400D9CF20E030E0A8
:1005F00040E050E4B8018D819B810E945F0487FD3B
:10060000CECF85E00E947000A4CF5058BB27AA2708
:100610000E941D030C9425040E94170438F00E94C8
:100620001E0420F039F49F3F19F426F40C941404AE
:100630000EF4E095E7FB0C940E04E92F0E943604BB
:1006400058F3BA17620773078407950720F079F407
:10065000A6F50C9458040EF4E0950B2EBA2FA02D9D
:100660000B01B90190010C01CA01A0011124FF275F
:10067000591B99F0593F50F4503E68F11A16F0405A
:10068000A22F232F342F4427585FF3CF4695379559
:100690002795A795F0405395C9F77EF41F16BA0B1E
:1006A000620B730B840BBAF09150A1F0FF0FBB1FCC
:1006B000661F771F881FC2F70EC0BA0F621F731F15
:1006C000841F48F4879577956795B795F7959E3F72
:1006D00008F0B0CF9395880F08F09927EE0F979503
:1006E000879508950E94EA0308F481E008950E9426
:1006F0007E036894B1110C94590408950E943E043D
:1007000088F09F5798F0B92F9927B751B0F0E1F0D2
:10071000660F771F881F991F1AF0BA95C9F714C082
:10072000B13091F00E945804B1E008950C9458043F
:10073000672F782F8827B85F39F0B93FCCF38695BB
:1007400077956795B395D9F73EF490958095709518
:1007500061957F4F8F4F9F4F0895E89409C097FB95
:100760003EF490958095709561957F4F8F4F9F4F88
:100770009923A9F0F92F96E9BB279395F6958795CC
:1007800077956795B795F111F8CFFAF4BB0F11F48F
:1007900060FF1BC06F5F7F4F8F4F9F4F16C0882336
:1007A00011F096E911C0772321F09EE8872F762F6C
:1007B00005C0662371F096E8862F70E060E02AF0AD
:1007C0009A95660F771F881FDAF7880F9695879599
:1007D00097F90895990F0008550FAA0BE0E8FEEF6E
:1007E00016161706E807F907C0F012161306E407F5
:1007F000F50798F0621B730B840B950B39F40A26EE
:1008000061F0232B242B252B21F408950A2609F4CB
:10081000A140A6958FEF811D811D089597F99F67CF
:1008200080E870E060E008959FEF80EC0895002478
:100830000A941616170618060906089500240A9445
:1008400012161306140605060895092E0394000CCB
:1008500011F4882352F0BB0F40F4BF2B11F460FF5A
:1008600004C06F5F7F4F8F4F9F4F089557FD905883
:10087000440F551F59F05F3F71F04795880F97FB64
:10088000991F61F09F3F79F087950895121613061E
:100890001406551FF2CF4695F1DF08C0161617064D
:1008A0001806991FF1CF8695710561050894089582
:1008B000E894BB2766277727CB0197F908950E9414
:1008C000EA0308F48FEF08950E9477040C9425043E
:1008D0000E94170438F00E941E0420F0952311F0A6
:1008E0000C940E040C94140411240C9459040E94CA
:1008F000360470F3959FC1F3950F50E0551F629F2A
:10090000F001729FBB27F00DB11D639FAA27F00D68
:10091000B11DAA1F649F6627B00DA11D661F829F8F
:100920002227B00DA11D621F739FB00DA11D621F74
:10093000839FA00D611D221F749F3327A00D611D91
:10094000231F849F600D211D822F762F6A2F112473
:100950009F5750409AF0F1F088234AF0EE0FFF1FA6
:10096000BB1F661F771F881F91505040A9F79E3FFD
:10097000510580F00C940E040C9459045F3FE4F38D
:10098000983ED4F3869577956795B795F795E79553
:100990009F5FC1F7FE2B880F911D9695879597F95C
:0609A0000895F894FFCF5A
:00000001FF
